{
  "contractName": "FlowStationWorkflowModule",
  "abi": [
    {
      "anonymous": false,
      "inputs": [
        {
          "indexed": false,
          "internalType": "bytes",
          "name": "_data",
          "type": "bytes"
        }
      ],
      "name": "ExecuteWorkflow",
      "type": "event"
    },
    {
      "inputs": [],
      "name": "NAME",
      "outputs": [
        {
          "internalType": "string",
          "name": "",
          "type": "string"
        }
      ],
      "stateMutability": "view",
      "type": "function"
    },
    {
      "inputs": [],
      "name": "VERSION",
      "outputs": [
        {
          "internalType": "string",
          "name": "",
          "type": "string"
        }
      ],
      "stateMutability": "view",
      "type": "function"
    },
    {
      "inputs": [
        {
          "internalType": "address",
          "name": "",
          "type": "address"
        }
      ],
      "name": "safeWorkflowCount",
      "outputs": [
        {
          "internalType": "uint256",
          "name": "",
          "type": "uint256"
        }
      ],
      "stateMutability": "view",
      "type": "function"
    },
    {
      "inputs": [
        {
          "internalType": "address",
          "name": "",
          "type": "address"
        },
        {
          "internalType": "uint256",
          "name": "",
          "type": "uint256"
        },
        {
          "internalType": "uint256",
          "name": "",
          "type": "uint256"
        }
      ],
      "name": "workflowDelegates",
      "outputs": [
        {
          "internalType": "address",
          "name": "",
          "type": "address"
        }
      ],
      "stateMutability": "view",
      "type": "function"
    },
    {
      "inputs": [
        {
          "internalType": "uint256",
          "name": "",
          "type": "uint256"
        }
      ],
      "name": "workflows",
      "outputs": [
        {
          "internalType": "contract IGnosisSafe",
          "name": "safe",
          "type": "address"
        }
      ],
      "stateMutability": "view",
      "type": "function"
    },
    {
      "inputs": [
        {
          "internalType": "contract IGnosisSafe",
          "name": "_safe",
          "type": "address"
        },
        {
          "internalType": "address[]",
          "name": "_delegates",
          "type": "address[]"
        },
        {
          "components": [
            {
              "internalType": "bytes4",
              "name": "selector",
              "type": "bytes4"
            },
            {
              "internalType": "bytes",
              "name": "arguments",
              "type": "bytes"
            }
          ],
          "internalType": "struct FlowStationWorkflowModule.Action[]",
          "name": "_actions",
          "type": "tuple[]"
        }
      ],
      "name": "addWorkflow",
      "outputs": [
        {
          "internalType": "uint256",
          "name": "",
          "type": "uint256"
        }
      ],
      "stateMutability": "nonpayable",
      "type": "function"
    },
    {
      "inputs": [
        {
          "internalType": "uint256",
          "name": "_workflow",
          "type": "uint256"
        }
      ],
      "name": "executeWorkflow",
      "outputs": [],
      "stateMutability": "payable",
      "type": "function"
    },
    {
      "inputs": [
        {
          "internalType": "uint256",
          "name": "_a",
          "type": "uint256"
        },
        {
          "internalType": "uint256",
          "name": "_b",
          "type": "uint256"
        }
      ],
      "name": "add",
      "outputs": [
        {
          "internalType": "uint256",
          "name": "",
          "type": "uint256"
        }
      ],
      "stateMutability": "pure",
      "type": "function"
    },
    {
      "inputs": [
        {
          "internalType": "uint256[]",
          "name": "_numbers",
          "type": "uint256[]"
        }
      ],
      "name": "average",
      "outputs": [
        {
          "internalType": "uint256",
          "name": "",
          "type": "uint256"
        }
      ],
      "stateMutability": "pure",
      "type": "function"
    },
    {
      "inputs": [
        {
          "internalType": "string",
          "name": "_greet",
          "type": "string"
        }
      ],
      "name": "greet",
      "outputs": [
        {
          "internalType": "string",
          "name": "",
          "type": "string"
        }
      ],
      "stateMutability": "pure",
      "type": "function"
    },
    {
      "inputs": [
        {
          "internalType": "string",
          "name": "_func",
          "type": "string"
        }
      ],
      "name": "getSelector",
      "outputs": [
        {
          "internalType": "bytes4",
          "name": "",
          "type": "bytes4"
        }
      ],
      "stateMutability": "pure",
      "type": "function"
    },
    {
      "inputs": [
        {
          "internalType": "string",
          "name": "_greet",
          "type": "string"
        }
      ],
      "name": "getByte",
      "outputs": [
        {
          "internalType": "bytes",
          "name": "",
          "type": "bytes"
        }
      ],
      "stateMutability": "pure",
      "type": "function"
    }
  ],
  "bytecode": "0x608060405234801561001057600080fd5b50611f3a806100206000396000f3fe6080604052600436106100a75760003560e01c8063a8606b8211610064578063a8606b8214610208578063dfd3ce4114610245578063ead710c414610282578063f0f56253146102bf578063feaec525146102db578063ffa1ad7414610318576100a7565b806322209071146100ac578063771602f7146100e957806380a003ff1461012657806396a7bfcf146101635780639f69bee3146101a0578063a3f4df7e146101dd575b600080fd5b3480156100b857600080fd5b506100d360048036038101906100ce9190610fc2565b610343565b6040516100e09190611070565b60405180910390f35b3480156100f557600080fd5b50610110600480360381019061010b91906110b7565b610604565b60405161011d9190611070565b60405180910390f35b34801561013257600080fd5b5061014d6004803603810190610148919061114d565b61061a565b60405161015a91906111d5565b60405180910390f35b34801561016f57600080fd5b5061018a600480360381019061018591906111f0565b61063c565b604051610197919061127c565b60405180910390f35b3480156101ac57600080fd5b506101c760048036038101906101c291906112c3565b61068a565b6040516101d49190611325565b60405180910390f35b3480156101e957600080fd5b506101f26106d9565b6040516101ff91906113d9565b60405180910390f35b34801561021457600080fd5b5061022f600480360381019061022a9190611539565b610712565b60405161023c9190611070565b60405180910390f35b34801561025157600080fd5b5061026c60048036038101906102679190611637565b610776565b60405161027991906116d5565b60405180910390f35b34801561028e57600080fd5b506102a960048036038101906102a49190611637565b610813565b6040516102b691906113d9565b60405180910390f35b6102d960048036038101906102d491906111f0565b61081d565b005b3480156102e757600080fd5b5061030260048036038101906102fd91906116f7565b610d75565b60405161030f9190611070565b60405180910390f35b34801561032457600080fd5b5061032d610d8d565b60405161033a91906113d9565b60405180910390f35b600080869050600060018160018154018082558091505003906000526020600020905050600080805490509050600060016000805490506103849190611753565b9050886000828154811061039b5761039a611787565b5b906000526020600020906003020160000160006101000a81548173ffffffffffffffffffffffffffffffffffffffff021916908373ffffffffffffffffffffffffffffffffffffffff160217905550878760008381548110610400576103ff611787565b5b9060005260206000209060030201600201919061041e929190610dc6565b5060005b868690508110156104c1576000828154811061044157610440611787565b5b906000526020600020906003020160010187878381811061046557610464611787565b5b905060200281019061047791906117c5565b908060018154018082558091505060019003906000526020600020906002020160009091909190915081816104ac9190611c38565b505080806104b990611c46565b915050610422565b50600160008473ffffffffffffffffffffffffffffffffffffffff1673ffffffffffffffffffffffffffffffffffffffff168152602001908152602001600020600081548092919061051290611c46565b919050555060005b888890508110156105f4576001600360008673ffffffffffffffffffffffffffffffffffffffff1673ffffffffffffffffffffffffffffffffffffffff16815260200190815260200160002060008b8b8581811061057b5761057a611787565b5b905060200201602081019061059091906116f7565b73ffffffffffffffffffffffffffffffffffffffff1673ffffffffffffffffffffffffffffffffffffffff16815260200190815260200160002060006101000a81548160ff02191690831515021790555080806105ec90611c46565b91505061051a565b5081935050505095945050505050565b600081836106129190611c8f565b905092915050565b6000828260405161062c929190611d15565b6040518091039020905092915050565b6000818154811061064c57600080fd5b90600052602060002090600302016000915090508060000160009054906101000a900473ffffffffffffffffffffffffffffffffffffffff16905081565b6002602052826000526040600020602052816000526040600020602052806000526040600020600092509250509054906101000a900473ffffffffffffffffffffffffffffffffffffffff1681565b6040518060400160405280601b81526020017f466c6f7753746174696f6e20576f726b666c6f77204d6f64756c65000000000081525081565b6000806000905060005b83518110156107605783818151811061073857610737611787565b5b60200260200101518261074b9190611c8f565b9150808061075890611c46565b91505061071c565b5082518161076e9190611d5d565b915050919050565b606060008260405160240161078b91906113d9565b6040516020818303038152906040527fead710c4000000000000000000000000000000000000000000000000000000007bffffffffffffffffffffffffffffffffffffffffffffffffffffffff19166020820180517bffffffffffffffffffffffffffffffffffffffffffffffffffffffff8381831617835250505050905080915050919050565b6060819050919050565b6000818154811061083157610830611787565b5b906000526020600020906003020160000160009054906101000a900473ffffffffffffffffffffffffffffffffffffffff163360011515600360008473ffffffffffffffffffffffffffffffffffffffff1673ffffffffffffffffffffffffffffffffffffffff16815260200190815260200160002060008373ffffffffffffffffffffffffffffffffffffffff1673ffffffffffffffffffffffffffffffffffffffff16815260200190815260200160002060009054906101000a900460ff16151514610934576040517f08c379a000000000000000000000000000000000000000000000000000000000815260040161092b90611dda565b60405180910390fd5b600080848154811061094957610948611787565b5b90600052602060002090600302016040518060600160405290816000820160009054906101000a900473ffffffffffffffffffffffffffffffffffffffff1673ffffffffffffffffffffffffffffffffffffffff1673ffffffffffffffffffffffffffffffffffffffff16815260200160018201805480602002602001604051908101604052809291908181526020016000905b82821015610af657838290600052602060002090600202016040518060400160405290816000820160009054906101000a900460e01b7bffffffffffffffffffffffffffffffffffffffffffffffffffffffff19167bffffffffffffffffffffffffffffffffffffffffffffffffffffffff19168152602001600182018054610a659061193e565b80601f0160208091040260200160405190810160405280929190818152602001828054610a919061193e565b8015610ade5780601f10610ab357610100808354040283529160200191610ade565b820191906000526020600020905b815481529060010190602001808311610ac157829003601f168201915b505050505081525050815260200190600101906109dd565b50505050815260200160028201805480602002602001604051908101604052809291908181526020018280548015610b8357602002820191906000526020600020905b8160009054906101000a900473ffffffffffffffffffffffffffffffffffffffff1673ffffffffffffffffffffffffffffffffffffffff1681526020019060010190808311610b39575b5050505050815250509050600060606000808781548110610ba757610ba6611787565b5b906000526020600020906003020160000160009054906101000a900473ffffffffffffffffffffffffffffffffffffffff16905060005b846020015151811015610d2b573073ffffffffffffffffffffffffffffffffffffffff1685602001518281518110610c1957610c18611787565b5b60200260200101516000015183604051602001610c36919061127c565b60405160208183030381529060405287602001518481518110610c5c57610c5b611787565b5b602002602001015160200151604051602001610c7a93929190611e4c565b604051602081830303815290604052604051610c969190611e81565b6000604051808303816000865af19150503d8060008114610cd3576040519150601f19603f3d011682016040523d82523d6000602084013e610cd8565b606091505b5080945081955050507f8e1a0bc72f3801575e768d1f01c5b66c6f18d3d1ac1a5f4ad75b97566ae69bca83604051610d1091906116d5565b60405180910390a18080610d2390611c46565b915050610bde565b5082610d6c576040517f08c379a0000000000000000000000000000000000000000000000000000000008152600401610d6390611ee4565b60405180910390fd5b50505050505050565b60016020528060005260406000206000915090505481565b6040518060400160405280600581526020017f302e302e3100000000000000000000000000000000000000000000000000000081525081565b828054828255906000526020600020908101928215610e55579160200282015b82811115610e5457823573ffffffffffffffffffffffffffffffffffffffff168260006101000a81548173ffffffffffffffffffffffffffffffffffffffff021916908373ffffffffffffffffffffffffffffffffffffffff16021790555091602001919060010190610de6565b5b509050610e629190610e66565b5090565b5b80821115610e7f576000816000905550600101610e67565b5090565b6000604051905090565b600080fd5b600080fd5b600073ffffffffffffffffffffffffffffffffffffffff82169050919050565b6000610ec282610e97565b9050919050565b6000610ed482610eb7565b9050919050565b610ee481610ec9565b8114610eef57600080fd5b50565b600081359050610f0181610edb565b92915050565b600080fd5b600080fd5b600080fd5b60008083601f840112610f2c57610f2b610f07565b5b8235905067ffffffffffffffff811115610f4957610f48610f0c565b5b602083019150836020820283011115610f6557610f64610f11565b5b9250929050565b60008083601f840112610f8257610f81610f07565b5b8235905067ffffffffffffffff811115610f9f57610f9e610f0c565b5b602083019150836020820283011115610fbb57610fba610f11565b5b9250929050565b600080600080600060608688031215610fde57610fdd610e8d565b5b6000610fec88828901610ef2565b955050602086013567ffffffffffffffff81111561100d5761100c610e92565b5b61101988828901610f16565b9450945050604086013567ffffffffffffffff81111561103c5761103b610e92565b5b61104888828901610f6c565b92509250509295509295909350565b6000819050919050565b61106a81611057565b82525050565b60006020820190506110856000830184611061565b92915050565b61109481611057565b811461109f57600080fd5b50565b6000813590506110b18161108b565b92915050565b600080604083850312156110ce576110cd610e8d565b5b60006110dc858286016110a2565b92505060206110ed858286016110a2565b9150509250929050565b60008083601f84011261110d5761110c610f07565b5b8235905067ffffffffffffffff81111561112a57611129610f0c565b5b60208301915083600182028301111561114657611145610f11565b5b9250929050565b6000806020838503121561116457611163610e8d565b5b600083013567ffffffffffffffff81111561118257611181610e92565b5b61118e858286016110f7565b92509250509250929050565b60007fffffffff0000000000000000000000000000000000000000000000000000000082169050919050565b6111cf8161119a565b82525050565b60006020820190506111ea60008301846111c6565b92915050565b60006020828403121561120657611205610e8d565b5b6000611214848285016110a2565b91505092915050565b6000819050919050565b600061124261123d61123884610e97565b61121d565b610e97565b9050919050565b600061125482611227565b9050919050565b600061126682611249565b9050919050565b6112768161125b565b82525050565b6000602082019050611291600083018461126d565b92915050565b6112a081610eb7565b81146112ab57600080fd5b50565b6000813590506112bd81611297565b92915050565b6000806000606084860312156112dc576112db610e8d565b5b60006112ea868287016112ae565b93505060206112fb868287016110a2565b925050604061130c868287016110a2565b9150509250925092565b61131f81610eb7565b82525050565b600060208201905061133a6000830184611316565b92915050565b600081519050919050565b600082825260208201905092915050565b60005b8381101561137a57808201518184015260208101905061135f565b83811115611389576000848401525b50505050565b6000601f19601f8301169050919050565b60006113ab82611340565b6113b5818561134b565b93506113c581856020860161135c565b6113ce8161138f565b840191505092915050565b600060208201905081810360008301526113f381846113a0565b905092915050565b7f4e487b7100000000000000000000000000000000000000000000000000000000600052604160045260246000fd5b6114338261138f565b810181811067ffffffffffffffff82111715611452576114516113fb565b5b80604052505050565b6000611465610e83565b9050611471828261142a565b919050565b600067ffffffffffffffff821115611491576114906113fb565b5b602082029050602081019050919050565b60006114b56114b084611476565b61145b565b905080838252602082019050602084028301858111156114d8576114d7610f11565b5b835b8181101561150157806114ed88826110a2565b8452602084019350506020810190506114da565b5050509392505050565b600082601f8301126115205761151f610f07565b5b81356115308482602086016114a2565b91505092915050565b60006020828403121561154f5761154e610e8d565b5b600082013567ffffffffffffffff81111561156d5761156c610e92565b5b6115798482850161150b565b91505092915050565b600080fd5b600067ffffffffffffffff8211156115a2576115a16113fb565b5b6115ab8261138f565b9050602081019050919050565b82818337600083830152505050565b60006115da6115d584611587565b61145b565b9050828152602081018484840111156115f6576115f5611582565b5b6116018482856115b8565b509392505050565b600082601f83011261161e5761161d610f07565b5b813561162e8482602086016115c7565b91505092915050565b60006020828403121561164d5761164c610e8d565b5b600082013567ffffffffffffffff81111561166b5761166a610e92565b5b61167784828501611609565b91505092915050565b600081519050919050565b600082825260208201905092915050565b60006116a782611680565b6116b1818561168b565b93506116c181856020860161135c565b6116ca8161138f565b840191505092915050565b600060208201905081810360008301526116ef818461169c565b905092915050565b60006020828403121561170d5761170c610e8d565b5b600061171b848285016112ae565b91505092915050565b7f4e487b7100000000000000000000000000000000000000000000000000000000600052601160045260246000fd5b600061175e82611057565b915061176983611057565b92508282101561177c5761177b611724565b5b828203905092915050565b7f4e487b7100000000000000000000000000000000000000000000000000000000600052603260045260246000fd5b600080fd5b600080fd5b600080fd5b6000823560016040038336030381126117e1576117e06117b6565b5b80830191505092915050565b6117f68161119a565b811461180157600080fd5b50565b60008135611811816117ed565b80915050919050565b60008160001b9050919050565b600063ffffffff6118378461181a565b9350801983169250808416831791505092915050565b60006118588261119a565b9050919050565b60008160e01c9050919050565b60006118778261185f565b9050919050565b6118878261184d565b61189a6118938261186c565b8354611827565b8255505050565b600080833560016020038436030381126118be576118bd6117b6565b5b80840192508235915067ffffffffffffffff8211156118e0576118df6117bb565b5b6020830192506001820236038313156118fc576118fb6117c0565b5b509250929050565b600082905092915050565b7f4e487b7100000000000000000000000000000000000000000000000000000000600052602260045260246000fd5b6000600282049050600182168061195657607f821691505b6020821081141561196a5761196961190f565b5b50919050565b60008190508160005260206000209050919050565b60006020601f8301049050919050565b600082821b905092915050565b6000600883026119d27fffffffffffffffffffffffffffffffffffffffffffffffffffffffffffffffff82611995565b6119dc8683611995565b95508019841693508086168417925050509392505050565b6000611a0f611a0a611a0584611057565b61121d565b611057565b9050919050565b6000819050919050565b611a29836119f4565b611a3d611a3582611a16565b8484546119a2565b825550505050565b600090565b611a52611a45565b611a5d818484611a20565b505050565b5b81811015611a8157611a76600082611a4a565b600181019050611a63565b5050565b601f821115611ac657611a9781611970565b611aa084611985565b81016020851015611aaf578190505b611ac3611abb85611985565b830182611a62565b50505b505050565b600082821c905092915050565b6000611ae960001984600802611acb565b1980831691505092915050565b6000611b028383611ad8565b9150826002028217905092915050565b611b1c8383611904565b67ffffffffffffffff811115611b3557611b346113fb565b5b611b3f825461193e565b611b4a828285611a85565b6000601f831160018114611b795760008415611b67578287013590505b611b718582611af6565b865550611bd9565b601f198416611b8786611970565b60005b82811015611baf57848901358255600182019150602085019450602081019050611b8a565b86831015611bcc5784890135611bc8601f891682611ad8565b8355505b6001600288020188555050505b50505050505050565b611bed838383611b12565b505050565b600081016000830180611c0481611804565b9050611c10818461187e565b5050506001810160208301611c2581856118a1565b611c30818386611be2565b505050505050565b611c428282611bf2565b5050565b6000611c5182611057565b91507fffffffffffffffffffffffffffffffffffffffffffffffffffffffffffffffff821415611c8457611c83611724565b5b600182019050919050565b6000611c9a82611057565b9150611ca583611057565b9250827fffffffffffffffffffffffffffffffffffffffffffffffffffffffffffffffff03821115611cda57611cd9611724565b5b828201905092915050565b600081905092915050565b6000611cfc8385611ce5565b9350611d098385846115b8565b82840190509392505050565b6000611d22828486611cf0565b91508190509392505050565b7f4e487b7100000000000000000000000000000000000000000000000000000000600052601260045260246000fd5b6000611d6882611057565b9150611d7383611057565b925082611d8357611d82611d2e565b5b828204905092915050565b7f53656e646572206973206e6f7420612064656c65676174650000000000000000600082015250565b6000611dc460188361134b565b9150611dcf82611d8e565b602082019050919050565b60006020820190508181036000830152611df381611db7565b9050919050565b6000819050919050565b611e15611e108261119a565b611dfa565b82525050565b6000611e2682611680565b611e308185611ce5565b9350611e4081856020860161135c565b80840191505092915050565b6000611e588286611e04565b600482019150611e688285611e1b565b9150611e748284611e1b565b9150819050949350505050565b6000611e8d8284611e1b565b915081905092915050565b7f43616c6c206661696c6564210000000000000000000000000000000000000000600082015250565b6000611ece600c8361134b565b9150611ed982611e98565b602082019050919050565b60006020820190508181036000830152611efd81611ec1565b905091905056fea264697066735822122048bc299406900eb62f3af5f0bd77ceb7fbc77f2677a042f6603eb27a47c8c07864736f6c634300080b0033",
  "immutableReferences": {},
  "source": "//SPDX-License-Identifier: Unlicense\npragma solidity <=8.11.0;\npragma abicoder v2;\n\nimport \"./IGnosisSafe.sol\";\n// import \"./BulkTransfer.sol\";\n\n/// @notice You can use this contract for basic simulation (bulk transferring and swap)\n/// @custom:experimental This is an experimental contract\ncontract FlowStationWorkflowModule {\n    string public constant NAME = \"FlowStation Workflow Module\";\n\n    string public constant VERSION = \"0.0.1\";\n\n    struct Action {\n        bytes4 selector;\n        bytes arguments;\n    }\n\n    struct Workflow {\n        IGnosisSafe safe;\n        Action[] actions;\n        address[] delegates;\n    }\n\n    Workflow[] public workflows;\n\n    // BulkTransfer public bulkTransfer;\n\n    /// @dev Safe -> number of workflows\n    mapping(address => uint) public safeWorkflowCount;\n\n    /// @dev Safe -> Workflow -> index -> delegate address\n    mapping(address => mapping(uint => mapping(uint => address))) public workflowDelegates;\n\n    /// @dev Safe -> Delegate -> Delegate or not\n    mapping (address => mapping(address => bool)) private activeWorkflowDelegate;\n\n    modifier canDelegate(address _safe, address _sender) {\n        require(activeWorkflowDelegate[_safe][_sender] == true, \"Sender is not a delegate\");\n        _;\n    }\n\n    event ExecuteWorkflow(bytes _data);\n\n    /// @dev it should update the workflowDelegates\n    function addWorkflow(\n        IGnosisSafe _safe,\n        address[] calldata _delegates,\n        Action[] calldata _actions\n    ) external returns(uint)  {\n        address safeAddress = address(_safe);\n\n        workflows.push();\n\n        uint count = workflows.length;\n        uint256 newIndex = workflows.length -1;\n\n        workflows[newIndex].safe = _safe;\n        workflows[newIndex].delegates = _delegates;\n\n        for (uint index = 0; index < _actions.length; index++) {\n            workflows[newIndex].actions.push(_actions[index]);\n        }\n        \n        safeWorkflowCount[safeAddress]++;\n        \n        for (uint index = 0; index < _delegates.length; index++) {\n            activeWorkflowDelegate[safeAddress][_delegates[index]] = true;    \n        }\n\n        return count;\n    }\n    \n    function executeWorkflow(uint _workflow) external payable canDelegate(address(workflows[_workflow].safe), msg.sender) {\n        Workflow memory workflow = workflows[_workflow];\n\n        bool success;\n        bytes memory data;\n\n        IGnosisSafe safe = workflows[_workflow].safe;\n\n        for (uint index = 0; index < workflow.actions.length; index++) {\n            (success, data) = address(this).call(\n                abi.encodePacked(workflow.actions[index].selector, abi.encode(safe), workflow.actions[index].arguments)\n            );\n\n            emit ExecuteWorkflow(data);\n        } \n        \n        require(success, \"Call failed!\");\n    }\n\n    /// @dev Testing purposes\n    function add(uint _a, uint _b) public pure returns(uint) {\n        return _a + _b;\n    }\n\n    /// @dev Testing purposes\n    function average(uint[] memory _numbers) public pure returns(uint) {\n        uint sum = 0;\n\n        for (uint index = 0; index < _numbers.length; index++) {\n            sum += _numbers[index];\n        }\n\n        return sum / _numbers.length;\n    }\n\n    /// @dev Testing purposes\n    function greet(string memory _greet) public pure returns(string memory) {\n        return _greet;\n    }\n    \n    /// @dev Testing purposes\n    function getSelector(string calldata _func) external pure returns (bytes4) {\n        return bytes4(keccak256(bytes(_func)));\n    }\n\n    /// @dev Testing purposes\n    function getByte(string memory _greet) external pure returns (bytes memory) {\n        bytes memory data = abi.encodeWithSignature(\"greet(string)\", _greet);\n\n        return data;\n    }\n}\n",
  "sourcePath": "/Users/kevin/Documents/hov/experiments/flowstation/truffle/contracts/FlowStation/FlowStationWorkflowModule.sol",
  "compiler": {
    "name": "solc",
    "version": "0.8.11+commit.d7f03943.Emscripten.clang"
  },
  "schemaVersion": "3.4.4",
  "updatedAt": "2022-02-03T03:05:17.099Z",
  "devdoc": {
    "custom:experimental": "This is an experimental contract",
    "kind": "dev",
    "methods": {
      "add(uint256,uint256)": {
        "details": "Testing purposes"
      },
      "addWorkflow(address,address[],(bytes4,bytes)[])": {
        "details": "it should update the workflowDelegates"
      },
      "average(uint256[])": {
        "details": "Testing purposes"
      },
      "getByte(string)": {
        "details": "Testing purposes"
      },
      "getSelector(string)": {
        "details": "Testing purposes"
      },
      "greet(string)": {
        "details": "Testing purposes"
      }
    },
    "stateVariables": {
      "activeWorkflowDelegate": {
        "details": "Safe -> Delegate -> Delegate or not"
      },
      "safeWorkflowCount": {
        "details": "Safe -> number of workflows"
      },
      "workflowDelegates": {
        "details": "Safe -> Workflow -> index -> delegate address"
      }
    },
    "version": 1
  },
  "userdoc": {
    "kind": "user",
    "methods": {},
    "notice": "You can use this contract for basic simulation (bulk transferring and swap)",
    "version": 1
  }
}