{
  "contractName": "BulkTransfer",
  "abi": [
    {
      "inputs": [],
      "name": "NAME",
      "outputs": [
        {
          "internalType": "string",
          "name": "",
          "type": "string"
        }
      ],
      "stateMutability": "view",
      "type": "function"
    },
    {
      "inputs": [],
      "name": "VERSION",
      "outputs": [
        {
          "internalType": "string",
          "name": "",
          "type": "string"
        }
      ],
      "stateMutability": "view",
      "type": "function"
    },
    {
      "inputs": [
        {
          "internalType": "contract IGnosisSafe",
          "name": "safe",
          "type": "address"
        },
        {
          "components": [
            {
              "internalType": "address",
              "name": "recipient",
              "type": "address"
            },
            {
              "internalType": "address",
              "name": "token",
              "type": "address"
            },
            {
              "internalType": "uint256",
              "name": "amount",
              "type": "uint256"
            }
          ],
          "internalType": "struct BulkTransfer.Transfer[]",
          "name": "transfers",
          "type": "tuple[]"
        }
      ],
      "name": "executeBulkTransfer",
      "outputs": [],
      "stateMutability": "nonpayable",
      "type": "function"
    }
  ],
  "bytecode": "0x608060405234801561001057600080fd5b50610b0d806100206000396000f3fe608060405234801561001057600080fd5b50600436106100415760003560e01c80630ebaf65014610046578063a3f4df7e14610062578063ffa1ad7414610080575b600080fd5b610060600480360381019061005b91906104eb565b61009e565b005b61006a610141565b60405161007791906105e4565b60405180910390f35b61008861017a565b60405161009591906105e4565b60405180910390f35b60005b8282905081101561013b57610128848484848181106100c3576100c2610606565b5b90506060020160200160208101906100db9190610661565b8585858181106100ee576100ed610606565b5b90506060020160000160208101906101069190610661565b86868681811061011957610118610606565b5b905060600201604001356101b3565b8080610133906106c7565b9150506100a1565b50505050565b6040518060400160405280600d81526020017f42756c6b205472616e736665720000000000000000000000000000000000000081525081565b6040518060400160405280600581526020017f302e302e3100000000000000000000000000000000000000000000000000000081525081565b600073ffffffffffffffffffffffffffffffffffffffff168373ffffffffffffffffffffffffffffffffffffffff1614156102ad578373ffffffffffffffffffffffffffffffffffffffff1663468721a7838360006040518463ffffffff1660e01b81526004016102269392919061082c565b6020604051808303816000875af1158015610245573d6000803e3d6000fd5b505050506040513d601f19601f8201168201806040525081019061026991906108ae565b6102a8576040517f08c379a000000000000000000000000000000000000000000000000000000000815260040161029f90610927565b60405180910390fd5b610406565b600082826040516024016102c2929190610968565b6040516020818303038152906040527fa9059cbb000000000000000000000000000000000000000000000000000000007bffffffffffffffffffffffffffffffffffffffffffffffffffffffff19166020820180517bffffffffffffffffffffffffffffffffffffffffffffffffffffffff838183161783525050505090508473ffffffffffffffffffffffffffffffffffffffff1663468721a78560008460006040518563ffffffff1660e01b81526004016103829493929190610a1f565b6020604051808303816000875af11580156103a1573d6000803e3d6000fd5b505050506040513d601f19601f820116820180604052508101906103c591906108ae565b610404576040517f08c379a00000000000000000000000000000000000000000000000000000000081526004016103fb90610ab7565b60405180910390fd5b505b50505050565b600080fd5b600080fd5b600073ffffffffffffffffffffffffffffffffffffffff82169050919050565b600061044182610416565b9050919050565b600061045382610436565b9050919050565b61046381610448565b811461046e57600080fd5b50565b6000813590506104808161045a565b92915050565b600080fd5b600080fd5b600080fd5b60008083601f8401126104ab576104aa610486565b5b8235905067ffffffffffffffff8111156104c8576104c761048b565b5b6020830191508360608202830111156104e4576104e3610490565b5b9250929050565b6000806000604084860312156105045761050361040c565b5b600061051286828701610471565b935050602084013567ffffffffffffffff81111561053357610532610411565b5b61053f86828701610495565b92509250509250925092565b600081519050919050565b600082825260208201905092915050565b60005b8381101561058557808201518184015260208101905061056a565b83811115610594576000848401525b50505050565b6000601f19601f8301169050919050565b60006105b68261054b565b6105c08185610556565b93506105d0818560208601610567565b6105d98161059a565b840191505092915050565b600060208201905081810360008301526105fe81846105ab565b905092915050565b7f4e487b7100000000000000000000000000000000000000000000000000000000600052603260045260246000fd5b61063e81610436565b811461064957600080fd5b50565b60008135905061065b81610635565b92915050565b6000602082840312156106775761067661040c565b5b60006106858482850161064c565b91505092915050565b7f4e487b7100000000000000000000000000000000000000000000000000000000600052601160045260246000fd5b6000819050919050565b60006106d2826106bd565b91507fffffffffffffffffffffffffffffffffffffffffffffffffffffffffffffffff8214156107055761070461068e565b5b600182019050919050565b6000819050919050565b600061073561073061072b84610416565b610710565b610416565b9050919050565b60006107478261071a565b9050919050565b60006107598261073c565b9050919050565b6107698161074e565b82525050565b610778816106bd565b82525050565b600082825260208201905092915050565b50565b600061079f60008361077e565b91506107aa8261078f565b600082019050919050565b7f4e487b7100000000000000000000000000000000000000000000000000000000600052602160045260246000fd5b600281106107f5576107f46107b5565b5b50565b6000819050610806826107e4565b919050565b6000610816826107f8565b9050919050565b6108268161080b565b82525050565b60006080820190506108416000830186610760565b61084e602083018561076f565b818103604083015261085f81610792565b905061086e606083018461081d565b949350505050565b60008115159050919050565b61088b81610876565b811461089657600080fd5b50565b6000815190506108a881610882565b92915050565b6000602082840312156108c4576108c361040c565b5b60006108d284828501610899565b91505092915050565b7f63616e6e6f742065786563757465206574686572207472616e73666572000000600082015250565b6000610911601d83610556565b915061091c826108db565b602082019050919050565b6000602082019050818103600083015261094081610904565b9050919050565b600061095282610416565b9050919050565b61096281610947565b82525050565b600060408201905061097d6000830185610959565b61098a602083018461076f565b9392505050565b61099a81610436565b82525050565b6000819050919050565b60006109c56109c06109bb846109a0565b610710565b6106bd565b9050919050565b6109d5816109aa565b82525050565b600081519050919050565b60006109f1826109db565b6109fb818561077e565b9350610a0b818560208601610567565b610a148161059a565b840191505092915050565b6000608082019050610a346000830187610991565b610a4160208301866109cc565b8181036040830152610a5381856109e6565b9050610a62606083018461081d565b95945050505050565b7f63616e6e6f74206578656375746520746f6b656e207472616e73666572000000600082015250565b6000610aa1601d83610556565b9150610aac82610a6b565b602082019050919050565b60006020820190508181036000830152610ad081610a94565b905091905056fea2646970667358221220500bf1d2d868a0ae3ffd86a5205ae8d81ec7222f55a0197d950211161e2ce69264736f6c634300080b0033",
  "immutableReferences": {},
  "source": "//SPDX-License-Identifier: Unlicense\npragma solidity >=0.7.0;\n\n// import \"@gnosis.pm/safe-contracts/contracts/common/Enum.sol\";\n// import \"@gnosis.pm/safe-contracts/contracts/external/GnosisSafeMath.sol\";\n\nimport \"./IGnosisSafe.sol\";\nimport \"./Enum.sol\";\n\ncontract BulkTransfer {\n    // using GnosisSafeMath for uint256;\n\n    string public constant NAME = \"Bulk Transfer\";\n\n    string public constant VERSION = \"0.0.1\";\n\n    struct Transfer {\n      address recipient;\n      address token;\n      uint256 amount;\n    }\n\n    function executeBulkTransfer(\n        IGnosisSafe safe,\n        Transfer[] calldata transfers\n    ) external {\n        for (uint256 i = 0; i < transfers.length; i++) {\n            transfer(safe, transfers[i].token, payable(transfers[i].recipient), transfers[i].amount);\n        }\n    }\n\n    function transfer(\n        IGnosisSafe safe,\n        address token,\n        address payable to,\n        uint256 amount\n    ) private {\n        if (token == address(0)) {\n            require(\n                safe.execTransactionFromModule(\n                    to,\n                    amount,\n                    \"\",\n                    Enum.Operation.Call\n                ),\n                \"cannot execute ether transfer\"\n            );\n        } else {\n            // token transfer\n            bytes memory data = abi.encodeWithSignature(\n                \"transfer(address,uint256)\",\n                to,\n                amount\n            );\n            \n            require(\n                safe.execTransactionFromModule(\n                    token,\n                    0,\n                    data,\n                    Enum.Operation.Call\n                ),\n                \"cannot execute token transfer\"\n            );\n        }\n    }\n}\n",
  "sourcePath": "/Users/kevin/Documents/hov/experiments/flowstation/truffle/contracts/FlowStation/BulkTransfer.sol",
  "compiler": {
    "name": "solc",
    "version": "0.8.11+commit.d7f03943.Emscripten.clang"
  },
  "schemaVersion": "3.4.4",
  "updatedAt": "2022-02-03T01:15:18.343Z",
  "devdoc": {
    "kind": "dev",
    "methods": {},
    "version": 1
  },
  "userdoc": {
    "kind": "user",
    "methods": {},
    "version": 1
  }
}