{
  "contractName": "FlowStationWorkflowModule",
  "abi": [
    {
      "anonymous": false,
      "inputs": [
        {
          "indexed": false,
          "internalType": "bytes",
          "name": "_data",
          "type": "bytes"
        }
      ],
      "name": "ExecuteWorkflow",
      "type": "event"
    },
    {
      "inputs": [],
      "name": "NAME",
      "outputs": [
        {
          "internalType": "string",
          "name": "",
          "type": "string"
        }
      ],
      "stateMutability": "view",
      "type": "function"
    },
    {
      "inputs": [],
      "name": "VERSION",
      "outputs": [
        {
          "internalType": "string",
          "name": "",
          "type": "string"
        }
      ],
      "stateMutability": "view",
      "type": "function"
    },
    {
      "inputs": [],
      "name": "bulkTransfer",
      "outputs": [
        {
          "internalType": "contract BulkTransfer",
          "name": "",
          "type": "address"
        }
      ],
      "stateMutability": "view",
      "type": "function"
    },
    {
      "inputs": [
        {
          "internalType": "address",
          "name": "",
          "type": "address"
        }
      ],
      "name": "safeWorkflowCount",
      "outputs": [
        {
          "internalType": "uint256",
          "name": "",
          "type": "uint256"
        }
      ],
      "stateMutability": "view",
      "type": "function"
    },
    {
      "inputs": [
        {
          "internalType": "address",
          "name": "",
          "type": "address"
        },
        {
          "internalType": "uint256",
          "name": "",
          "type": "uint256"
        },
        {
          "internalType": "uint256",
          "name": "",
          "type": "uint256"
        }
      ],
      "name": "workflowDelegates",
      "outputs": [
        {
          "internalType": "address",
          "name": "",
          "type": "address"
        }
      ],
      "stateMutability": "view",
      "type": "function"
    },
    {
      "inputs": [
        {
          "internalType": "uint256",
          "name": "",
          "type": "uint256"
        }
      ],
      "name": "workflows",
      "outputs": [
        {
          "internalType": "contract IGnosisSafe",
          "name": "safe",
          "type": "address"
        }
      ],
      "stateMutability": "view",
      "type": "function"
    },
    {
      "inputs": [
        {
          "internalType": "contract IGnosisSafe",
          "name": "_safe",
          "type": "address"
        },
        {
          "internalType": "address[]",
          "name": "_delegates",
          "type": "address[]"
        },
        {
          "components": [
            {
              "internalType": "bytes4",
              "name": "selector",
              "type": "bytes4"
            },
            {
              "internalType": "bytes",
              "name": "arguments",
              "type": "bytes"
            }
          ],
          "internalType": "struct FlowStationWorkflowModule.Action[]",
          "name": "_actions",
          "type": "tuple[]"
        }
      ],
      "name": "addWorkflow",
      "outputs": [
        {
          "internalType": "uint256",
          "name": "",
          "type": "uint256"
        }
      ],
      "stateMutability": "nonpayable",
      "type": "function"
    },
    {
      "inputs": [
        {
          "internalType": "uint256",
          "name": "_workflow",
          "type": "uint256"
        }
      ],
      "name": "executeWorkflow",
      "outputs": [],
      "stateMutability": "payable",
      "type": "function"
    },
    {
      "inputs": [
        {
          "internalType": "uint256",
          "name": "_a",
          "type": "uint256"
        },
        {
          "internalType": "uint256",
          "name": "_b",
          "type": "uint256"
        }
      ],
      "name": "add",
      "outputs": [
        {
          "internalType": "uint256",
          "name": "",
          "type": "uint256"
        }
      ],
      "stateMutability": "pure",
      "type": "function"
    },
    {
      "inputs": [
        {
          "internalType": "uint256[]",
          "name": "_numbers",
          "type": "uint256[]"
        }
      ],
      "name": "average",
      "outputs": [
        {
          "internalType": "uint256",
          "name": "",
          "type": "uint256"
        }
      ],
      "stateMutability": "pure",
      "type": "function"
    },
    {
      "inputs": [
        {
          "internalType": "string",
          "name": "_greet",
          "type": "string"
        }
      ],
      "name": "greet",
      "outputs": [
        {
          "internalType": "string",
          "name": "",
          "type": "string"
        }
      ],
      "stateMutability": "pure",
      "type": "function"
    },
    {
      "inputs": [
        {
          "internalType": "string",
          "name": "_func",
          "type": "string"
        }
      ],
      "name": "getSelector",
      "outputs": [
        {
          "internalType": "bytes4",
          "name": "",
          "type": "bytes4"
        }
      ],
      "stateMutability": "pure",
      "type": "function"
    },
    {
      "inputs": [
        {
          "internalType": "string",
          "name": "_greet",
          "type": "string"
        }
      ],
      "name": "getByte",
      "outputs": [
        {
          "internalType": "bytes",
          "name": "",
          "type": "bytes"
        }
      ],
      "stateMutability": "pure",
      "type": "function"
    }
  ],
  "bytecode": "0x608060405234801561001057600080fd5b50611fe2806100206000396000f3fe6080604052600436106100c25760003560e01c8063a3f4df7e1161007f578063ead710c411610059578063ead710c4146102c8578063f0f5625314610305578063feaec52514610321578063ffa1ad741461035e576100c2565b8063a3f4df7e14610223578063a8606b821461024e578063dfd3ce411461028b576100c2565b806322209071146100c7578063771602f71461010457806380a003ff1461014157806396a7bfcf1461017e5780639806f920146101bb5780639f69bee3146101e6575b600080fd5b3480156100d357600080fd5b506100ee60048036038101906100e9919061102e565b610389565b6040516100fb91906110dc565b60405180910390f35b34801561011057600080fd5b5061012b60048036038101906101269190611123565b61064a565b60405161013891906110dc565b60405180910390f35b34801561014d57600080fd5b50610168600480360381019061016391906111b9565b610660565b6040516101759190611241565b60405180910390f35b34801561018a57600080fd5b506101a560048036038101906101a0919061125c565b610682565b6040516101b291906112e8565b60405180910390f35b3480156101c757600080fd5b506101d06106d0565b6040516101dd9190611324565b60405180910390f35b3480156101f257600080fd5b5061020d6004803603810190610208919061136b565b6106f6565b60405161021a91906113cd565b60405180910390f35b34801561022f57600080fd5b50610238610745565b6040516102459190611481565b60405180910390f35b34801561025a57600080fd5b50610275600480360381019061027091906115e1565b61077e565b60405161028291906110dc565b60405180910390f35b34801561029757600080fd5b506102b260048036038101906102ad91906116df565b6107e2565b6040516102bf919061177d565b60405180910390f35b3480156102d457600080fd5b506102ef60048036038101906102ea91906116df565b61087f565b6040516102fc9190611481565b60405180910390f35b61031f600480360381019061031a919061125c565b610889565b005b34801561032d57600080fd5b506103486004803603810190610343919061179f565b610de1565b60405161035591906110dc565b60405180910390f35b34801561036a57600080fd5b50610373610df9565b6040516103809190611481565b60405180910390f35b600080869050600060018160018154018082558091505003906000526020600020905050600080805490509050600060016000805490506103ca91906117fb565b905088600082815481106103e1576103e061182f565b5b906000526020600020906003020160000160006101000a81548173ffffffffffffffffffffffffffffffffffffffff021916908373ffffffffffffffffffffffffffffffffffffffff1602179055508787600083815481106104465761044561182f565b5b90600052602060002090600302016002019190610464929190610e32565b5060005b8686905081101561050757600082815481106104875761048661182f565b5b90600052602060002090600302016001018787838181106104ab576104aa61182f565b5b90506020028101906104bd919061186d565b908060018154018082558091505060019003906000526020600020906002020160009091909190915081816104f29190611ce0565b505080806104ff90611cee565b915050610468565b50600260008473ffffffffffffffffffffffffffffffffffffffff1673ffffffffffffffffffffffffffffffffffffffff168152602001908152602001600020600081548092919061055890611cee565b919050555060005b8888905081101561063a576001600460008673ffffffffffffffffffffffffffffffffffffffff1673ffffffffffffffffffffffffffffffffffffffff16815260200190815260200160002060008b8b858181106105c1576105c061182f565b5b90506020020160208101906105d6919061179f565b73ffffffffffffffffffffffffffffffffffffffff1673ffffffffffffffffffffffffffffffffffffffff16815260200190815260200160002060006101000a81548160ff021916908315150217905550808061063290611cee565b915050610560565b5081935050505095945050505050565b600081836106589190611d37565b905092915050565b60008282604051610672929190611dbd565b6040518091039020905092915050565b6000818154811061069257600080fd5b90600052602060002090600302016000915090508060000160009054906101000a900473ffffffffffffffffffffffffffffffffffffffff16905081565b600160009054906101000a900473ffffffffffffffffffffffffffffffffffffffff1681565b6003602052826000526040600020602052816000526040600020602052806000526040600020600092509250509054906101000a900473ffffffffffffffffffffffffffffffffffffffff1681565b6040518060400160405280601b81526020017f466c6f7753746174696f6e20576f726b666c6f77204d6f64756c65000000000081525081565b6000806000905060005b83518110156107cc578381815181106107a4576107a361182f565b5b6020026020010151826107b79190611d37565b915080806107c490611cee565b915050610788565b508251816107da9190611e05565b915050919050565b60606000826040516024016107f79190611481565b6040516020818303038152906040527fead710c4000000000000000000000000000000000000000000000000000000007bffffffffffffffffffffffffffffffffffffffffffffffffffffffff19166020820180517bffffffffffffffffffffffffffffffffffffffffffffffffffffffff8381831617835250505050905080915050919050565b6060819050919050565b6000818154811061089d5761089c61182f565b5b906000526020600020906003020160000160009054906101000a900473ffffffffffffffffffffffffffffffffffffffff163360011515600460008473ffffffffffffffffffffffffffffffffffffffff1673ffffffffffffffffffffffffffffffffffffffff16815260200190815260200160002060008373ffffffffffffffffffffffffffffffffffffffff1673ffffffffffffffffffffffffffffffffffffffff16815260200190815260200160002060009054906101000a900460ff161515146109a0576040517f08c379a000000000000000000000000000000000000000000000000000000000815260040161099790611e82565b60405180910390fd5b60008084815481106109b5576109b461182f565b5b90600052602060002090600302016040518060600160405290816000820160009054906101000a900473ffffffffffffffffffffffffffffffffffffffff1673ffffffffffffffffffffffffffffffffffffffff1673ffffffffffffffffffffffffffffffffffffffff16815260200160018201805480602002602001604051908101604052809291908181526020016000905b82821015610b6257838290600052602060002090600202016040518060400160405290816000820160009054906101000a900460e01b7bffffffffffffffffffffffffffffffffffffffffffffffffffffffff19167bffffffffffffffffffffffffffffffffffffffffffffffffffffffff19168152602001600182018054610ad1906119e6565b80601f0160208091040260200160405190810160405280929190818152602001828054610afd906119e6565b8015610b4a5780601f10610b1f57610100808354040283529160200191610b4a565b820191906000526020600020905b815481529060010190602001808311610b2d57829003601f168201915b50505050508152505081526020019060010190610a49565b50505050815260200160028201805480602002602001604051908101604052809291908181526020018280548015610bef57602002820191906000526020600020905b8160009054906101000a900473ffffffffffffffffffffffffffffffffffffffff1673ffffffffffffffffffffffffffffffffffffffff1681526020019060010190808311610ba5575b5050505050815250509050600060606000808781548110610c1357610c1261182f565b5b906000526020600020906003020160000160009054906101000a900473ffffffffffffffffffffffffffffffffffffffff16905060005b846020015151811015610d97573073ffffffffffffffffffffffffffffffffffffffff1685602001518281518110610c8557610c8461182f565b5b60200260200101516000015183604051602001610ca291906112e8565b60405160208183030381529060405287602001518481518110610cc857610cc761182f565b5b602002602001015160200151604051602001610ce693929190611ef4565b604051602081830303815290604052604051610d029190611f29565b6000604051808303816000865af19150503d8060008114610d3f576040519150601f19603f3d011682016040523d82523d6000602084013e610d44565b606091505b5080945081955050507f8e1a0bc72f3801575e768d1f01c5b66c6f18d3d1ac1a5f4ad75b97566ae69bca83604051610d7c919061177d565b60405180910390a18080610d8f90611cee565b915050610c4a565b5082610dd8576040517f08c379a0000000000000000000000000000000000000000000000000000000008152600401610dcf90611f8c565b60405180910390fd5b50505050505050565b60026020528060005260406000206000915090505481565b6040518060400160405280600581526020017f302e302e3100000000000000000000000000000000000000000000000000000081525081565b828054828255906000526020600020908101928215610ec1579160200282015b82811115610ec057823573ffffffffffffffffffffffffffffffffffffffff168260006101000a81548173ffffffffffffffffffffffffffffffffffffffff021916908373ffffffffffffffffffffffffffffffffffffffff16021790555091602001919060010190610e52565b5b509050610ece9190610ed2565b5090565b5b80821115610eeb576000816000905550600101610ed3565b5090565b6000604051905090565b600080fd5b600080fd5b600073ffffffffffffffffffffffffffffffffffffffff82169050919050565b6000610f2e82610f03565b9050919050565b6000610f4082610f23565b9050919050565b610f5081610f35565b8114610f5b57600080fd5b50565b600081359050610f6d81610f47565b92915050565b600080fd5b600080fd5b600080fd5b60008083601f840112610f9857610f97610f73565b5b8235905067ffffffffffffffff811115610fb557610fb4610f78565b5b602083019150836020820283011115610fd157610fd0610f7d565b5b9250929050565b60008083601f840112610fee57610fed610f73565b5b8235905067ffffffffffffffff81111561100b5761100a610f78565b5b60208301915083602082028301111561102757611026610f7d565b5b9250929050565b60008060008060006060868803121561104a57611049610ef9565b5b600061105888828901610f5e565b955050602086013567ffffffffffffffff81111561107957611078610efe565b5b61108588828901610f82565b9450945050604086013567ffffffffffffffff8111156110a8576110a7610efe565b5b6110b488828901610fd8565b92509250509295509295909350565b6000819050919050565b6110d6816110c3565b82525050565b60006020820190506110f160008301846110cd565b92915050565b611100816110c3565b811461110b57600080fd5b50565b60008135905061111d816110f7565b92915050565b6000806040838503121561113a57611139610ef9565b5b60006111488582860161110e565b92505060206111598582860161110e565b9150509250929050565b60008083601f84011261117957611178610f73565b5b8235905067ffffffffffffffff81111561119657611195610f78565b5b6020830191508360018202830111156111b2576111b1610f7d565b5b9250929050565b600080602083850312156111d0576111cf610ef9565b5b600083013567ffffffffffffffff8111156111ee576111ed610efe565b5b6111fa85828601611163565b92509250509250929050565b60007fffffffff0000000000000000000000000000000000000000000000000000000082169050919050565b61123b81611206565b82525050565b60006020820190506112566000830184611232565b92915050565b60006020828403121561127257611271610ef9565b5b60006112808482850161110e565b91505092915050565b6000819050919050565b60006112ae6112a96112a484610f03565b611289565b610f03565b9050919050565b60006112c082611293565b9050919050565b60006112d2826112b5565b9050919050565b6112e2816112c7565b82525050565b60006020820190506112fd60008301846112d9565b92915050565b600061130e826112b5565b9050919050565b61131e81611303565b82525050565b60006020820190506113396000830184611315565b92915050565b61134881610f23565b811461135357600080fd5b50565b6000813590506113658161133f565b92915050565b60008060006060848603121561138457611383610ef9565b5b600061139286828701611356565b93505060206113a38682870161110e565b92505060406113b48682870161110e565b9150509250925092565b6113c781610f23565b82525050565b60006020820190506113e260008301846113be565b92915050565b600081519050919050565b600082825260208201905092915050565b60005b83811015611422578082015181840152602081019050611407565b83811115611431576000848401525b50505050565b6000601f19601f8301169050919050565b6000611453826113e8565b61145d81856113f3565b935061146d818560208601611404565b61147681611437565b840191505092915050565b6000602082019050818103600083015261149b8184611448565b905092915050565b7f4e487b7100000000000000000000000000000000000000000000000000000000600052604160045260246000fd5b6114db82611437565b810181811067ffffffffffffffff821117156114fa576114f96114a3565b5b80604052505050565b600061150d610eef565b905061151982826114d2565b919050565b600067ffffffffffffffff821115611539576115386114a3565b5b602082029050602081019050919050565b600061155d6115588461151e565b611503565b905080838252602082019050602084028301858111156115805761157f610f7d565b5b835b818110156115a95780611595888261110e565b845260208401935050602081019050611582565b5050509392505050565b600082601f8301126115c8576115c7610f73565b5b81356115d884826020860161154a565b91505092915050565b6000602082840312156115f7576115f6610ef9565b5b600082013567ffffffffffffffff81111561161557611614610efe565b5b611621848285016115b3565b91505092915050565b600080fd5b600067ffffffffffffffff82111561164a576116496114a3565b5b61165382611437565b9050602081019050919050565b82818337600083830152505050565b600061168261167d8461162f565b611503565b90508281526020810184848401111561169e5761169d61162a565b5b6116a9848285611660565b509392505050565b600082601f8301126116c6576116c5610f73565b5b81356116d684826020860161166f565b91505092915050565b6000602082840312156116f5576116f4610ef9565b5b600082013567ffffffffffffffff81111561171357611712610efe565b5b61171f848285016116b1565b91505092915050565b600081519050919050565b600082825260208201905092915050565b600061174f82611728565b6117598185611733565b9350611769818560208601611404565b61177281611437565b840191505092915050565b600060208201905081810360008301526117978184611744565b905092915050565b6000602082840312156117b5576117b4610ef9565b5b60006117c384828501611356565b91505092915050565b7f4e487b7100000000000000000000000000000000000000000000000000000000600052601160045260246000fd5b6000611806826110c3565b9150611811836110c3565b925082821015611824576118236117cc565b5b828203905092915050565b7f4e487b7100000000000000000000000000000000000000000000000000000000600052603260045260246000fd5b600080fd5b600080fd5b600080fd5b6000823560016040038336030381126118895761188861185e565b5b80830191505092915050565b61189e81611206565b81146118a957600080fd5b50565b600081356118b981611895565b80915050919050565b60008160001b9050919050565b600063ffffffff6118df846118c2565b9350801983169250808416831791505092915050565b600061190082611206565b9050919050565b60008160e01c9050919050565b600061191f82611907565b9050919050565b61192f826118f5565b61194261193b82611914565b83546118cf565b8255505050565b600080833560016020038436030381126119665761196561185e565b5b80840192508235915067ffffffffffffffff82111561198857611987611863565b5b6020830192506001820236038313156119a4576119a3611868565b5b509250929050565b600082905092915050565b7f4e487b7100000000000000000000000000000000000000000000000000000000600052602260045260246000fd5b600060028204905060018216806119fe57607f821691505b60208210811415611a1257611a116119b7565b5b50919050565b60008190508160005260206000209050919050565b60006020601f8301049050919050565b600082821b905092915050565b600060088302611a7a7fffffffffffffffffffffffffffffffffffffffffffffffffffffffffffffffff82611a3d565b611a848683611a3d565b95508019841693508086168417925050509392505050565b6000611ab7611ab2611aad846110c3565b611289565b6110c3565b9050919050565b6000819050919050565b611ad183611a9c565b611ae5611add82611abe565b848454611a4a565b825550505050565b600090565b611afa611aed565b611b05818484611ac8565b505050565b5b81811015611b2957611b1e600082611af2565b600181019050611b0b565b5050565b601f821115611b6e57611b3f81611a18565b611b4884611a2d565b81016020851015611b57578190505b611b6b611b6385611a2d565b830182611b0a565b50505b505050565b600082821c905092915050565b6000611b9160001984600802611b73565b1980831691505092915050565b6000611baa8383611b80565b9150826002028217905092915050565b611bc483836119ac565b67ffffffffffffffff811115611bdd57611bdc6114a3565b5b611be782546119e6565b611bf2828285611b2d565b6000601f831160018114611c215760008415611c0f578287013590505b611c198582611b9e565b865550611c81565b601f198416611c2f86611a18565b60005b82811015611c5757848901358255600182019150602085019450602081019050611c32565b86831015611c745784890135611c70601f891682611b80565b8355505b6001600288020188555050505b50505050505050565b611c95838383611bba565b505050565b600081016000830180611cac816118ac565b9050611cb88184611926565b5050506001810160208301611ccd8185611949565b611cd8818386611c8a565b505050505050565b611cea8282611c9a565b5050565b6000611cf9826110c3565b91507fffffffffffffffffffffffffffffffffffffffffffffffffffffffffffffffff821415611d2c57611d2b6117cc565b5b600182019050919050565b6000611d42826110c3565b9150611d4d836110c3565b9250827fffffffffffffffffffffffffffffffffffffffffffffffffffffffffffffffff03821115611d8257611d816117cc565b5b828201905092915050565b600081905092915050565b6000611da48385611d8d565b9350611db1838584611660565b82840190509392505050565b6000611dca828486611d98565b91508190509392505050565b7f4e487b7100000000000000000000000000000000000000000000000000000000600052601260045260246000fd5b6000611e10826110c3565b9150611e1b836110c3565b925082611e2b57611e2a611dd6565b5b828204905092915050565b7f53656e646572206973206e6f7420612064656c65676174650000000000000000600082015250565b6000611e6c6018836113f3565b9150611e7782611e36565b602082019050919050565b60006020820190508181036000830152611e9b81611e5f565b9050919050565b6000819050919050565b611ebd611eb882611206565b611ea2565b82525050565b6000611ece82611728565b611ed88185611d8d565b9350611ee8818560208601611404565b80840191505092915050565b6000611f008286611eac565b600482019150611f108285611ec3565b9150611f1c8284611ec3565b9150819050949350505050565b6000611f358284611ec3565b915081905092915050565b7f43616c6c206661696c6564210000000000000000000000000000000000000000600082015250565b6000611f76600c836113f3565b9150611f8182611f40565b602082019050919050565b60006020820190508181036000830152611fa581611f69565b905091905056fea26469706673582212209da5214275675a26604eac788c0cefe2c51c33818566459a9342d1786ccadf0664736f6c634300080b0033",
  "immutableReferences": {},
  "source": "//SPDX-License-Identifier: Unlicense\npragma solidity <=8.11.0;\npragma abicoder v2;\n\nimport \"./IGnosisSafe.sol\";\nimport \"./BulkTransfer.sol\";\n\n/// @notice You can use this contract for basic simulation (bulk transferring and swap)\n/// @custom:experimental This is an experimental contract\ncontract FlowStationWorkflowModule {\n    string public constant NAME = \"FlowStation Workflow Module\";\n\n    string public constant VERSION = \"0.0.1\";\n\n    struct Action {\n        bytes4 selector;\n        bytes arguments;\n    }\n\n    struct Workflow {\n        IGnosisSafe safe;\n        Action[] actions;\n        address[] delegates;\n    }\n\n    Workflow[] public workflows;\n\n    BulkTransfer public bulkTransfer;\n\n    /// @dev Safe -> number of workflows\n    mapping(address => uint) public safeWorkflowCount;\n\n    /// @dev Safe -> Workflow -> index -> delegate address\n    mapping(address => mapping(uint => mapping(uint => address))) public workflowDelegates;\n\n    /// @dev Safe -> Delegate -> Delegate or not\n    mapping (address => mapping(address => bool)) private activeWorkflowDelegate;\n\n    modifier canDelegate(address _safe, address _sender) {\n        require(activeWorkflowDelegate[_safe][_sender] == true, \"Sender is not a delegate\");\n        _;\n    }\n\n    event ExecuteWorkflow(bytes _data);\n\n    /// @dev it should update the workflowDelegates\n    function addWorkflow(\n        IGnosisSafe _safe,\n        address[] calldata _delegates,\n        Action[] calldata _actions\n    ) external returns(uint)  {\n        address safeAddress = address(_safe);\n\n        workflows.push();\n\n        uint count = workflows.length;\n        uint256 newIndex = workflows.length -1;\n\n        workflows[newIndex].safe = _safe;\n        workflows[newIndex].delegates = _delegates;\n\n        for (uint index = 0; index < _actions.length; index++) {\n            workflows[newIndex].actions.push(_actions[index]);\n        }\n        \n        safeWorkflowCount[safeAddress]++;\n        \n        for (uint index = 0; index < _delegates.length; index++) {\n            activeWorkflowDelegate[safeAddress][_delegates[index]] = true;    \n        }\n\n        return count;\n    }\n    \n    function executeWorkflow(uint _workflow) external payable canDelegate(address(workflows[_workflow].safe), msg.sender) {\n        Workflow memory workflow = workflows[_workflow];\n\n        bool success;\n        bytes memory data;\n\n        IGnosisSafe safe = workflows[_workflow].safe;\n\n        for (uint index = 0; index < workflow.actions.length; index++) {\n            (success, data) = address(this).call(\n                abi.encodePacked(workflow.actions[index].selector, abi.encode(safe), workflow.actions[index].arguments)\n            );\n\n            emit ExecuteWorkflow(data);\n        } \n        \n        require(success, \"Call failed!\");\n    }\n\n    /// @dev Testing purposes\n    function add(uint _a, uint _b) public pure returns(uint) {\n        return _a + _b;\n    }\n\n    /// @dev Testing purposes\n    function average(uint[] memory _numbers) public pure returns(uint) {\n        uint sum = 0;\n\n        for (uint index = 0; index < _numbers.length; index++) {\n            sum += _numbers[index];\n        }\n\n        return sum / _numbers.length;\n    }\n\n    /// @dev Testing purposes\n    function greet(string memory _greet) public pure returns(string memory) {\n        return _greet;\n    }\n    \n    /// @dev Testing purposes\n    function getSelector(string calldata _func) external pure returns (bytes4) {\n        return bytes4(keccak256(bytes(_func)));\n    }\n\n    /// @dev Testing purposes\n    function getByte(string memory _greet) external pure returns (bytes memory) {\n        bytes memory data = abi.encodeWithSignature(\"greet(string)\", _greet);\n\n        return data;\n    }\n}\n",
  "sourcePath": "/Users/kevin/Documents/hov/experiments/flowstation/truffle/contracts/FlowStation/FlowStationWorkflowModule.sol",
  "compiler": {
    "name": "solc",
    "version": "0.8.11+commit.d7f03943.Emscripten.clang"
  },
  "schemaVersion": "3.4.4",
  "updatedAt": "2022-02-03T02:40:52.471Z",
  "devdoc": {
    "custom:experimental": "This is an experimental contract",
    "kind": "dev",
    "methods": {
      "add(uint256,uint256)": {
        "details": "Testing purposes"
      },
      "addWorkflow(address,address[],(bytes4,bytes)[])": {
        "details": "it should update the workflowDelegates"
      },
      "average(uint256[])": {
        "details": "Testing purposes"
      },
      "getByte(string)": {
        "details": "Testing purposes"
      },
      "getSelector(string)": {
        "details": "Testing purposes"
      },
      "greet(string)": {
        "details": "Testing purposes"
      }
    },
    "stateVariables": {
      "activeWorkflowDelegate": {
        "details": "Safe -> Delegate -> Delegate or not"
      },
      "safeWorkflowCount": {
        "details": "Safe -> number of workflows"
      },
      "workflowDelegates": {
        "details": "Safe -> Workflow -> index -> delegate address"
      }
    },
    "version": 1
  },
  "userdoc": {
    "kind": "user",
    "methods": {},
    "notice": "You can use this contract for basic simulation (bulk transferring and swap)",
    "version": 1
  }
}